S012000050726F796563746F5F322E737265632C
S11300000C9434000C9451000C9451000C94510045
S11300100C9451000C9454010C9451000C94510014
S11300200C9451000C94E1020C9451000C94510076
S11300300C9451000C9471020C9451000C945100D6
S11300400C9451000C9451000C9451000C945100E8
S11300500C9451000C946F000C9451000C945100BA
S11300600C9451000C94510011241FBECFEFD8E022
S1130070DEBFCDBF11E0A0E0B1E0EAE1FBE002C0E9
S113008005900D92A230B107D9F721E0A2E0B1E0CA
S113009001C01D92A031B207E1F70E949A000C94AE
S11300A08B050C940000EEE7F0E010828081806301
S11300B08083ECE7F0E01082808187668083EAE742
S11300C0F0E0108280818F608083808180688083EB
S11300D0808180648083089580910F0108951F9228
S11300E00F920FB60F9211248F9380917900809311
S11300F00F018F910F900FBE0F901F9018951AB893
S11301008FE087B98FEF84B98AB182608AB988B1E8
S1130110807F88B988B1816088B9E8E6F0E0108210
S1130120808184608083EDE6F0E0108280818063CA
S113013080830895F8940E947F000E9453000E94D7
S11301407D020E94C2020E942E03789480910001D5
S1130150813021F0823009F47AC0F8CF0E946C001B
S11301608093070180910701809306018091070124
S113017061E00E94D302CCE7D0E08881807F88834D
S11301808881866088830AE710E0F80180818064B2
S113019080838FE097E20197F1F700C000000E948E
S11301A06C00809307018091070180930501809181
S11301B0070162E00E949F028881807F8883888192
S11301C085608883F8018081806480838FE097E272
S11301D00197F1F700C000000E946C0080930701B2
S11301E080910701809304018091070163E00E94DC
S11301F09F028881807F8883888184608883F80156
S11302008081806480838FE097E20197F1F700C0DA
S113021000000E946C008093070180910701809385
S113022003018091070164E00E94D3028881807FEA
S11302308883888187608883F801808180648083D3
S11302408FE097E20197F1F700C000007FCF809123
S1130250060161E00E94D302EFE0F7E23197F1F783
S113026000C000008091050162E00E949F028FE0BF
S113027097E20197F1F700C000008091040163E068
S11302800E949F02EFE0F7E23197F1F700C000000F
S11302908091030164E00E94D3028FE097E201970A
S11302A0F1F700C0000052CF1F920F920FB60F92C9
S11302B011242F933F934F935F936F937F938F9367
S11302C09F93AF93BF93EF93FF9399B180910001F4
S11302D0823009F46EC0833009F4D2C0813009F051
S11302E0DAC094FF0BC082E08093000188B1807F64
S11302F088B988B1826088B91092020195FFCBC099
S113030087E50E9443038AE00E944303809102012F
S1130310880F880F0E944A038AE00E944303609179
S113032006018091020190E0880F991F880F991FA0
S11303300E947D05809106010E944A036091050197
S11303408091020190E0880F991F880F991F0196F0
S11303500E947D05809105010E944A036091040179
S11303608091020190E0880F991F880F991F0296CF
S11303700E947D05809104010E944A03609103015B
S11303808091020190E0880F991F880F991F0396AE
S11303900E947D05809103010E944A03809102011D
S11303A08F5F80930201843009F075C010920201BE
S11303B072C094FF0BC083E08093000188B1807FFA
S11303C088B988B1846088B91092020195FF63C02E
S11303D082E50E9443038AE00E9443038091020164
S11303E0880F880F0E944A038AE00E944303809189
S11303F0020190E0880F991F880F991F0E947505CC
S113040080930601809106010E944A0380910201B3
S113041090E0880F991F880F991F01960E94750517
S113042080930501809105010E944A038091020195
S113043090E0880F991F880F991F02960E947505F6
S113044080930401809104010E944A038091020177
S113045090E0880F991F880F991F03960E947505D5
S113046080930301809103010E944A038091020159
S11304708F5F80930201843071F4109202010BC0EB
S113048094FF09C081E08093000188B1807F88B91E
S113049088B1816088B9FF91EF91BF91AF919F912D
S11304A08F917F916F915F914F913F912F910F9019
S11304B00FBE0F901F90189521E0209308010CC0E7
S11304C0633021F49093890080938800623021F492
S11304D090938B0080938A00209108012111F0CF22
S11304E008951F920F920FB60F92112410920801D3
S11304F00F900FBE0F901F901895EFE6F0E010825A
S113050081E080838CE9809387008FE38093860069
S113051093E09093890080EF8093880090938B0000
S113052080938A00A0E8B0E01C92E1E8F0E0108239
S11305308C91826A8C9380818A6180830895CF93A1
S1130540C62F682F70E080E090E00E947A0420E0DB
S113055030E04FE753E40E94D90320E030ED4CE64D
S113056055E40E94080520E030E04CE754E40E9482
S11305706D030E944B04DC01CB016C2F0E945C02D2
S1130580CF910895E0E7F0E0108281E0808310923B
S1130590B000E1EBF0E0108280818260808382EF22
S11305A08093B2000895613031F490E090930C018F
S11305B080930B01089590E090930A0180930901C0
S11305C008951F920F920FB60F9211242F933F9309
S11305D08F939F9320910D0130910E0180910B0117
S11305E090910C012817390720F085B1877F85B9D0
S11305F003C085B1886085B920910D0130910E0149
S11306008091090190910A012817390720F085B1DA
S11306108E7F85B903C085B1816085B980910D0154
S113062090910E01019690930E0180930D0182EF3B
S11306308093B20080910D0190910E018B329B400A
S113064020F010920E0110920D019F918F913F9115
S11306502F910F900FBE0F901F9018951092C0000D
S1130660E1ECF0E01082808188698083E2ECF0E0C4
S1130670108280818660808387E690E09093C50035
S11306808093C40008959091C00095FFFCCF80939F
S1130690C6000895CF93C82F80E002C08F5FC45670
S11306A0C436E0F7805D0E94430380E002C08F5FA0
S11306B0CA50CA30E0F7805D0E94430380E002C064
S11306C08F5FC150C111FCCF805D0E9443038AE05B
S11306D00E944303CF9108955058BB27AA270E9434
S11306E084030C94CE040E94C00438F00E94C70412
S11306F020F039F49F3F19F426F40C94BD040EF451
S1130700E095E7FB0C94B704E92F0E94DF0458F34B
S1130710BA17620773078407950720F079F4A6F5E2
S11307200C9401050EF4E0950B2EBA2FA02D0B01AD
S1130730B90190010C01CA01A0011124FF27591B22
S113074099F0593F50F4503E68F11A16F040A22F28
S1130750232F342F4427585FF3CF46953795279599
S1130760A795F0405395C9F77EF41F16BA0B620B98
S1130770730B840BBAF09150A1F0FF0FBB1F661FDF
S1130780771F881FC2F70EC0BA0F621F731F841F22
S113079048F4879577956795B795F7959E3F08F048
S11307A0B0CF9395880F08F09927EE0F979587950A
S11307B008950E94ED030C94CE040E94C70458F0DF
S11307C00E94C00440F029F45F3F29F00C94B70460
S11307D051110C9402050C94BD040E94DF0468F3CB
S11307E09923B1F3552391F3951B550BBB27AA27E6
S11307F062177307840738F09F5F5F4F220F331F20
S1130800441FAA1FA9F335D00E2E3AF0E0E832D0E7
S113081091505040E695001CCAF72BD0FE2F29D0EA
S1130820660F771F881FBB1F261737074807AB07BC
S1130830B0E809F0BB0B802DBF01FF2793585F4F31
S11308403AF09E3F510578F00C94B7040C940205DD
S11308505F3FE4F3983ED4F3869577956795B79513
S1130860F7959F5FC9F7880F911D9695879597F91E
S11308700895E1E0660F771F881FBB1F6217730797
S11308808407BA0720F0621B730B840BBA0BEE1FAC
S113089088F7E09508950E94E70488F09F5798F040
S11308A0B92F9927B751B0F0E1F0660F771F881F71
S11308B0991F1AF0BA95C9F714C0B13091F00E948B
S11308C00105B1E008950C940105672F782F88275E
S11308D0B85F39F0B93FCCF3869577956795B395B2
S11308E0D9F73EF490958095709561957F4F8F4F21
S11308F09F4F0895E89409C097FB3EF49095809526
S1130900709561957F4F8F4F9F4F9923A9F0F92FD1
S113091096E9BB279395F695879577956795B7954F
S1130920F111F8CFFAF4BB0F11F460FF1BC06F5F35
S11309307F4F8F4F9F4F16C0882311F096E911C047
S1130940772321F09EE8872F762F05C0662371F068
S113095096E8862F70E060E02AF09A95660F771F7C
S1130960881FDAF7880F9695879597F9089597F970
S11309709F6780E870E060E008959FEF80EC089541
S113098000240A941616170618060906089500246A
S11309900A9412161306140605060895092E0394E4
S11309A0000C11F4882352F0BB0F40F4BF2B11F458
S11309B060FF04C06F5F7F4F8F4F9F4F089557FDB7
S11309C09058440F551F59F05F3F71F04795880FB9
S11309D097FB991F61F09F3F79F087950895121650
S11309E013061406551FF2CF4695F1DF08C01616FC
S11309F017061806991FF1CF8695710561050894AD
S1130A000895E894BB2766277727CB0197F90895C3
S1130A100E941B050C94CE040E94C00438F00E946E
S1130A20C70420F0952311F00C94B7040C94BD0472
S1130A3011240C9402050E94DF0470F3959FC1F306
S1130A40950F50E0551F629FF001729FBB27F00D78
S1130A50B11D639FAA27F00DB11DAA1F649F6627CD
S1130A60B00DA11D661F829F2227B00DA11D621F1C
S1130A70739FB00DA11D621F839FA00D611D221FD6
S1130A80749F3327A00D611D231F849F600D211DBA
S1130A90822F762F6A2F11249F5750409AF0F1F03D
S1130AA088234AF0EE0FFF1FBB1F661F771F881FA6
S1130AB091505040A9F79E3F510580F00C94B70423
S1130AC00C9402055F3FE4F3983ED4F38695779542
S1130AD06795B795F795E7959F5FC1F7FE2B880F4C
S1130AE0911D9695879597F90895F999FECF92BD32
S1130AF081BDF89A992780B50895262FF999FECFDC
S1130B001FBA92BD81BD20BD0FB6F894FA9AF99A26
S10D0B100FBE01960895F894FFCF7C
S1050B1A0100D4
S9030000FC
