S012000050726F796563746F5F322E737265632C
S11300000C9434000C9446000C9446000C94460066
S11300100C9446000C9446000C9446000C94460044
S11300200C9446000C947A010C9446000C944600FF
S11300300C9446000C940A010C9446000C9446005F
S11300400C9446000C9446000C9446000C94460014
S11300500C9446000C9464000C9446000C944600E6
S11300600C9446000C94460011241FBECFEFD8E038
S1130070DEBFCDBF21E0A0E0B1E001C01D92A930F8
S1130080B207E1F70E947C000C940E040C9400006B
S1130090EEE7F0E01082808180638083ECE7F0E09B
S11300A01082808187668083EAE7F0E01082808195
S11300B08F60808380818068808380818064808376
S11300C008958091080108951F920F920FB60F9220
S11300D011248F9380917900809308018F910F9060
S11300E00FBE0F901F9018951AB817B88FEF84B9E8
S11300F08AB182608AB90895F8940E9448000E94E7
S113010016010E945B010E94C7010E94740078944A
S11301100E946100809300018091000161E00E94CF
S11301206C01CCE7D0E08881807F888388818660F9
S113013088830AE710E0F8018081806480838FE17E
S11301409EE40197F1F700C000000E9461008093D3
S113015000018091000162E00E9438018881807F63
S11301608883888185608883F801808180648083A6
S11301708FE19EE40197F1F700C000000E94610046
S1130180809300018091000163E00E943801809116
S113019000010E94E3018881807F888388818460D4
S11301A08883F8018081806480838FE19EE40197D5
S11301B0F1F700C000000E9461008093000180916B
S11301C0000164E00E946C018881807F88838881BB
S11301D087608883F8018081806480838FE19EE456
S11301E00197F1F700C0000093CF21E020930101B3
S11301F00CC0633021F490938900809388006230AE
S113020021F490938B0080938A00209101012111A5
S1130210F0CF08951F920F920FB60F9211241092EF
S113022001010F900FBE0F901F901895EFE6F0E0BC
S1130230108281E080838CE9809387008FE3809330
S1130240860093E09093890080EF809388009093D8
S11302508B0080938A00A0E8B0E01C92E1E8F0E013
S113026010828C91826A8C9380818A618083089544
S1130270CF93C62F682F70E080E090E00E941303B4
S113028020E030E04FE753E40E94720220E030EDBA
S11302904CE655E40E94A10320E030E04CE754E42E
S11302A00E9406020E94E402DC01CB016C2F0E9432
S11302B0F500CF910895E0E7F0E0108281E08083BB
S11302C01092B000E1EBF0E01082808182608083C4
S11302D082EF8093B2000895613031F490E09093FE
S11302E0050180930401089590E0909303018093A5
S11302F0020108951F920F920FB60F9211242F93AB
S11303003F938F939F932091060130910701809131
S11303100401909105012817390720F085B1877FE2
S113032085B903C085B1886085B9209106013091F3
S1130330070180910201909103012817390720F0E9
S113034085B18E7F85B903C085B1816085B98091FF
S1130350060190910701019690930701809306018D
S113036082EF8093B20080910601909107018B3255
S11303709B4020F010920701109206019F918F91EB
S11303803F912F910F900FBE0F901F9018951092D0
S1130390C000E1ECF0E01082808188698083E2ECA7
S11303A0F0E0108280818660808387E690E09093FD
S11303B0C5008093C40008959091C00095FFFCCFC0
S11303C08093C6000895CF93C82F80E002C08F5F4A
S11303D0C456C436E0F7805D0E94DC0180E002C0B0
S11303E08F5FCA50CA30E0F7805D0E94DC0180E074
S11303F002C08F5FC150C111FCCF805D0E94DC013F
S11304008AE00E94DC01CF9108955058BB27AA27A7
S11304100E941D020C9467030E94590338F00E9445
S1130420600320F039F49F3F19F426F40C9456032A
S11304300EF4E095E7FB0C945003E92F0E94780337
S113044058F3BA17620773078407950720F079F405
S1130450A6F50C949A030EF4E0950B2EBA2FA02D5A
S11304600B01B90190010C01CA01A0011124FF275D
S1130470591B99F0593F50F4503E68F11A16F04058
S1130480A22F232F342F4427585FF3CF4695379557
S11304902795A795F0405395C9F77EF41F16BA0B1C
S11304A0620B730B840BBAF09150A1F0FF0FBB1FCA
S11304B0661F771F881FC2F70EC0BA0F621F731F13
S11304C0841F48F4879577956795B795F7959E3F70
S11304D008F0B0CF9395880F08F09927EE0F979501
S11304E0879508950E9486020C9467030E94600316
S11304F058F00E94590340F029F45F3F29F00C940E
S1130500500351110C949B030C9456030E947803DE
S113051068F39923B1F3552391F3951B550BBB272E
S1130520AA2762177307840738F09F5F5F4F220F73
S1130530331F441FAA1FA9F335D00E2E3AF0E0E86A
S113054032D091505040E695001CCAF72BD0FE2FB4
S113055029D0660F771F881FBB1F26173707480748
S1130560AB07B0E809F0BB0B802DBF01FF27935800
S11305705F4F3AF09E3F510578F00C9450030C9471
S11305809B035F3FE4F3983ED4F386957795679594
S1130590B795F7959F5FC9F7880F911D9695879535
S11305A097F90895E1E0660F771F881FBB1F621754
S11305B073078407BA0720F0621B730B840BBA0B12
S11305C0EE1F88F7E09508950E94800388F09F57F6
S11305D098F0B92F9927B751B0F0E1F0660F771F63
S11305E0881F991F1AF0BA95C9F714C0B13091F059
S11305F00E949A03B1E008950C949A03672F782F10
S11306008827B85F39F0B93FCCF38695779567951D
S1130610B395D9F73EF490958095709561957F4F89
S11306208F4F9F4F0895E89409C097FB3EF490952F
S11306308095709561957F4F8F4F9F4F9923A9F0B7
S1130640F92F96E9BB279395F69587957795679546
S1130650B795F111F8CFFAF4BB0F11F460FF1BC08A
S11306606F5F7F4F8F4F9F4F16C0882311F096E91D
S113067011C0772321F09EE8872F762F05C06623CB
S113068071F096E8862F70E060E02AF09A95660F84
S1130690771F881FDAF7880F9695879597F908953D
S11306A097F99F6780E870E060E008959FEF80EC21
S11306B0089500240A9416161706180609060895C4
S11306C000240A9412161306140605060895092E2A
S11306D00394000C11F4882352F0BB0F40F4BF2B99
S11306E011F460FF04C06F5F7F4F8F4F9F4F0895D9
S11306F057FD9058440F551F59F05F3F71F04795CF
S1130700880F97FB991F61F09F3F79F087950895B3
S1130710121613061406551FF2CF4695F1DF08C0D2
S1130720161617061806991FF1CF869571056105EF
S113073008940895E894BB2766277727CB0197F997
S113074008950E94B4030C9467030E94590338F07F
S11307500E94600320F0952311F00C9450030C9434
S1130760560311240C949B030E94780370F3959F05
S1130770C1F3950F50E0551F629FF001729FBB2794
S1130780F00DB11D639FAA27F00DB11DAA1F649F30
S11307906627B00DA11D661F829F2227B00DA11DE3
S11307A0621F739FB00DA11D621F839FA00D611D69
S11307B0221F749F3327A00D611D231F849F600D8A
S11307C0211D822F762F6A2F11249F5750409AF0B3
S11307D0F1F088234AF0EE0FFF1FBB1F661F771F3F
S11307E0881F91505040A9F79E3F510580F00C940A
S11307F050030C949B035F3FE4F3983ED4F3869537
S113080077956795B795F795E7959F5FC1F7FE2BA9
S1130810880F911D9695879597F90895F894FFCFC1
S9030000FC
