S012000050726F796563746F5F322E737265632C
S11300000C9434000C9451000C9451000C94510045
S11300100C9451000C9483010C9451000C945100E5
S11300200C9451000C94C5030C9451000C94510091
S11300300C9451000C94F5020C9451000C94510052
S11300400C9451000C9451000C9441020C945100F6
S11300500C9451000C946F000C9451000C945100BA
S11300600C9451000C94510011241FBECFEFD8E022
S1130070DEBFCDBF11E0A0E0B1E0E2EEFCE002C0E3
S113008005900D92A630B107D9F721E0A6E0B1E0C2
S113009001C01D92AB31B207E1F70E949A000C94A3
S11300A06F060C940000EEE7F0E01082808180631C
S11300B08083ECE7F0E01082808187668083EAE742
S11300C0F0E0108280818F608083808180688083EB
S11300D080818064808308958091180108951F921F
S11300E00F920FB60F9211248F9380917900809311
S11300F018018F910F900FBE0F901F9018951AB88A
S11301008FE087B98FEF84B98AB182608AB988B1E8
S1130110807F88B988B1816088B9E8E6F0E0108210
S1130120808184608083EDE6F0E0108280818063CA
S113013080830895F8940E947F000E9453000E94D7
S113014001030E947F030E941204789480910101AC
S1130150823009F47EC0833009F4A8C08130B1F73D
S11301600E946C00809310018091100180930F0114
S11301708091100161E00E949003CCE7D0E0888177
S1130180807F88838881866088830AE710E0F8018D
S11301908081806480838FE19EE40197F1F700C041
S11301A000000E946C0080931001809110018093E4
S11301B00E018091100162E00E9423038881807FF8
S11301C08883888185608883F80180818064808346
S11301D08FE19EE40197F1F700C000000E946C00DB
S11301E0809310018091100180930D018091100182
S11301F063E00E9423038881807F888388818460F0
S11302008883F8018081806480838FE19EE4019774
S1130210F1F700C000000E946C00809310018091EF
S1130220100180930C018091100164E00E949003FE
S11302308881807F8883888187608883F8018081B2
S1130240806480838FE19EE40197F1F700C0000091
S11302507DCF80910F0161E00E949003EFE0F7E20F
S11302603197F1F700C0000080910E0162E00E9416
S113027023038FE097E20197F1F700C0000080911B
S11302800D0163E00E942303EFE0F7E23197F1F7F9
S113029000C0000080910C0164E00E9490038FE094
S11302A097E20197F1F700C0000050CF809105015B
S11302B061E00E949003EFE0F7E23197F1F700C0AC
S11302C000008091040162E00E9423038FE097E222
S11302D00197F1F700C000008091030163E00E94E0
S11302E02303EFE0F7E23197F1F700C000008091BB
S11302F0020164E00E9490038FE097E20197F1F716
S113030000C0000023CF1F920F920FB60F9211244A
S11303101F932F933F934F935F936F937F938F9389
S11303209F93AF93BF93CF93DF93EF93FF9399B1D1
S113033080910101823009F44FC0833009F482C0F6
S1130340813009F08AC094FF0BC082E080930101E0
S113035088B1807F88B988B1826088B910920B0116
S113036095FF7BC060910F0180910B0190E0880F95
S1130370991F880F991F0E94610660910E01809158
S11303800B0190E0880F991F880F991F01960E9416
S1130390610660910D0180910B0190E0880F991F17
S11303A0880F991F02960E94610660910C0180914A
S11303B00B0190E0880F991F880F991F03960E94E4
S11303C0610680910B018F5F80930B01843009F0EB
S11303D044C010920B0141C094FF0BC083E0809392
S11303E0010188B1807F88B988B1846088B910928E
S11303F00B0195FF32C010910B01C12FD0E0CC0F3F
S1130400DD1FCC0FDD1FCE010E94590680930F0122
S1130410CE0101960E94590680930E01CE010296E8
S11304200E94590680930D01CE0103960E9459063D
S113043080930C011F5F10930B01143071F4109220
S11304400B010BC094FF09C081E08093010188B1C6
S1130450807F88B988B1816088B9FF91EF91DF917D
S1130460CF91BF91AF919F918F917F916F915F9148
S11304704F913F912F911F910F900FBE0F901F909E
S113048018951F920F920FB60F9211242F933F933A
S11304904F935F936F937F938F939F93AF93BF9388
S11304A0EF93FF938091C60080931901809100011E
S11304B08230A9F018F4813031F071C08330F1F04A
S11304C0843061F16CC08091190180930A010E940B
S11304D02E04809100018F5F8093000160C0209101
S11304E0190130E02053310994E6299F202D11246D
S11304F0209306018F5F8093000151C02091190160
S113050030E020533109220F922F990F990F290FB0
S1130510209307018F5F8093000141C080911901EE
S11305208053809308012091060190910701920F56
S1130530980F909309010E942E04809107010E9454
S11305402E04809106010E942E0480910A018233B8
S113055071F018F4813331F01FC0833369F08433B0
S113056081F01AC0809109018093050115C0809122
S113057009018093040110C0809109018093030153
S11305800BC0809109018093020188E50E94270431
S1130590809102010E942E0481E080930001FF916A
S11305A0EF91BF91AF919F918F917F916F915F91E7
S11305B04F913F912F910F900FBE0F901F90189560
S11305C021E0209311010CC0633021F49093890041
S11305D080938800623021F490938B0080938A008A
S11305E0209111012111F0CF08951F920F920FB69F
S11305F00F921124109211010F900FBE0F901F90B3
S11306001895EFE6F0E0108281E080838CE9809316
S113061087008FE38093860093E09093890080EFB6
S11306208093880090938B0080938A00A0E8B0E0C8
S11306301C92E1E8F0E010828C91826A8C938081B4
S11306408A6180830895CF93C62F623019F0633096
S113065019F142C0833E08F042C0883408F442C015
S1130660682F70E080E090E00E945E0520E030E0BA
S11306704FE753E40E94BD0420E030ED4CE655E41E
S11306800E94EC0520E030E04CE754E40E94510461
S11306900E942F05CB012EC0853E38F58D3940F1DF
S11306A0682F70E080E090E00E945E0520E030E07A
S11306B04FE753E40E94BD0420E030ED4CE655E4DE
S11306C00E94EC0520E030E04CE754E40E94510421
S11306D00E942F05CB010EC080E090E00BC08CE19E
S11306E091E108C08EE098E005C08AE391E102C080
S11306F08DEF9CE06C2F0E94E002CF910895E0E71B
S1130700F0E0108281E080831092B000E1EBF0E031
S1130710108280818260808382EF8093B20008958A
S1130720613019F06430C9F00895803F78F488325C
S113073030F090E09093150180931401089587E2BE
S113074090E09093150180931401089580EF90E058
S1130750909315018093140108958B3E78F4833BA4
S113076030F090E09093130180931201089582EB8E
S113077090E0909313018093120108958BEE90E022
S1130780909313018093120108951F920F920FB654
S11307900F9211242F933F938F939F9320911601CF
S11307A03091170180911401909115012817390790
S11307B020F085B1877F85B903C085B1886085B98C
S11307C0209116013091170180911201909113012B
S11307D02817390720F085B18E7F85B903C085B10C
S11307E0816085B9809116019091170101969093CB
S11307F017018093160182EF8093B2008091160155
S1130800909117018B329B4020F0109217011092A7
S113081016019F918F913F912F910F900FBE0F90D2
S11308201F9018951092C000E1ECF0E010828081D6
S113083088698083E2ECF0E01082808186608083A6
S113084087E690E09093C5008093C400089590914A
S1130850C00095FFFCCF8093C6000895CF93C82FA6
S113086080E002C08F5FC456C436E0F7805D0E940A
S1130870270480E002C08F5FCA50CA30E0F7805D71
S11308800E94270480E002C08F5FC150C111FCCFD9
S1130890805D0E9427048AE00E942704CF91089576
S11308A05058BB27AA270E9468040C94B2050E94E2
S11308B0A40538F00E94AB0520F039F49F3F19F4E9
S11308C026F40C94A1050EF4E095E7FB0C949B052B
S11308D0E92F0E94C30558F3BA1762077307840708
S11308E0950720F079F4A6F50C94E5050EF4E0954F
S11308F00B2EBA2FA02D0B01B90190010C01CA01D6
S1130900A0011124FF27591B99F0593F50F4503E80
S113091068F11A16F040A22F232F342F4427585F72
S1130920F3CF469537952795A795F0405395C9F78A
S11309307EF41F16BA0B620B730B840BBAF0915042
S1130940A1F0FF0FBB1F661F771F881FC2F70EC0E1
S1130950BA0F621F731F841F48F4879577956795B4
S1130960B795F7959E3F08F0B0CF9395880F08F0A0
S11309709927EE0F9795879508950E94D1040C94BA
S1130980B2050E94AB0558F00E94A40540F029F47A
S11309905F3F29F00C949B0551110C94E6050C94CF
S11309A0A1050E94C30568F39923B1F3552391F37C
S11309B0951B550BBB27AA2762177307840738F0CA
S11309C09F5F5F4F220F331F441FAA1FA9F335D027
S11309D00E2E3AF0E0E832D091505040E695001CDB
S11309E0CAF72BD0FE2F29D0660F771F881FBB1F95
S11309F0261737074807AB07B0E809F0BB0B802D73
S1130A00BF01FF2793585F4F3AF09E3F510578F09E
S1130A100C949B050C94E6055F3FE4F3983ED4F3F5
S1130A20869577956795B795F7959F5FC9F7880F72
S1130A30911D9695879597F90895E1E0660F771FC4
S1130A40881FBB1F621773078407BA0720F0621B55
S1130A50730B840BBA0BEE1F88F7E09508950E9480
S1130A60CB0588F09F5798F0B92F9927B751B0F06C
S1130A70E1F0660F771F881F991F1AF0BA95C9F71E
S1130A8014C0B13091F00E94E505B1E008950C94D2
S1130A90E505672F782F8827B85F39F0B93FCCF385
S1130AA0869577956795B395D9F73EF4909580959B
S1130AB0709561957F4F8F4F9F4F0895E89409C0BB
S1130AC097FB3EF490958095709561957F4F8F4F7D
S1130AD09F4F9923A9F0F92F96E9BB279395F69593
S1130AE0879577956795B795F111F8CFFAF4BB0F11
S1130AF011F460FF1BC06F5F7F4F8F4F9F4F16C075
S1130B00882311F096E911C0772321F09EE8872FFE
S1130B10762F05C0662371F096E8862F70E060E0BA
S1130B202AF09A95660F771F881FDAF7880F969533
S1130B30879597F9089597F99F6780E870E060E0DA
S1130B4008959FEF80EC089500240A941616170662
S1130B5018060906089500240A94121613061406AA
S1130B6005060895092E0394000C11F4882352F00D
S1130B70BB0F40F4BF2B11F460FF04C06F5F7F4FC5
S1130B808F4F9F4F089557FD9058440F551F59F0AC
S1130B905F3F71F04795880F97FB991F61F09F3F66
S1130BA079F087950895121613061406551FF2CF8F
S1130BB04695F1DF08C0161617061806991FF1CFDF
S1130BC086957105610508940895E894BB27662706
S1130BD07727CB0197F908950E94FF050C94B2057D
S1130BE00E94A40538F00E94AB0520F0952311F073
S1130BF00C949B050C94A10511240C94E6050E9409
S1130C00C30570F3959FC1F3950F50E0551F629F84
S1130C10F001729FBB27F00DB11D639FAA27F00D51
S1130C20B11DAA1F649F6627B00DA11D661F829F78
S1130C302227B00DA11D621F739FB00DA11D621F5D
S1130C40839FA00D611D221F749F3327A00D611D7A
S1130C50231F849F600D211D822F762F6A2F11245C
S1130C609F5750409AF0F1F088234AF0EE0FFF1F8F
S1130C70BB1F661F771F881F91505040A9F79E3FE6
S1130C80510580F00C949B050C94E6055F3FE4F35A
S1130C90983ED4F3869577956795B795F795E7953C
S1130CA09F5FC1F7FE2B880F911D9695879597F945
S1130CB00895F999FECF92BD81BDF89A992780B520
S1130CC00895262FF999FECF1FBA92BD81BD20BD8C
S1130CD00FB6F894FA9AF99A0FBE01960895F8940B
S1050CE0FFCF40
S1090CE20101C1C4948766
S9030000FC
