:100000000C9434000C9446000C9446000C9446006A
:100010000C9446000C9446000C9446000C94460048
:100020000C9446000C9446000C9446000C94460038
:100030000C9446000C94CA000C9446000C944600A4
:100040000C9446000C9446000C9446000C94460018
:100050000C9446000C945E000C9446000C944600F0
:100060000C9446000C94460011241FBECFEFD8E03C
:10007000DEBFCDBF21E0A0E0B1E001C01D92A33002
:10008000B207E1F70E9476000C9424030C94000060
:10009000ECE7F0E01082808187668083EAE7F0E099
:1000A000108280818F6080838081806880838081DE
:1000B0008064808308958091020108951F920F92B9
:1000C0000FB60F9211248F938091790080930201D3
:1000D0008F910F900FBE0F901F9018951AB817B8F8
:1000E0008FEF84B98AB182608AB90895F8940E942A
:1000F00048000E94D6000E946E0078940E945B0027
:10010000809300018091000161E00E94F800CCE73B
:10011000D0E08881807F88838881866688830AE72B
:1001200010E0F8018081806480838FE39CE901976F
:10013000F1F700C000000E945B00809300018091F5
:10014000000162E00E94F8008881807F88838881B6
:1001500087668883F8018081806480838FE39CE9CF
:100160000197F1F700C00000C9CF21E02093010101
:100170000CC0613021F49093890080938800623034
:1001800021F490938B0080938A002091010121112A
:10019000F0CF08951F920F920FB60F921124109274
:1001A00001010F900FBE0F901F901895EFE6F0E041
:1001B000108281E080838CE9809387008FE38093B5
:1001C000860094E09093890087EF80938800909355
:1001D0008B0080938A00A0E8B0E01C92E1E8F0E098
:1001E00010828C91826A8C9380818A6180830895C9
:1001F000CF93C62F682F70E080E090E00E94290224
:1002000020E030E04FE753E40E94880120E030E630
:100210004CE555E40E94B70220E030EE4EE954E48C
:100220000E941C010E94FA01DC01CB016C2F0E948C
:10023000B500CF9108955058BB27AA270E943301DB
:100240000C947D020E946F0238F00E94760220F02A
:1002500039F49F3F19F426F40C946C020EF4E095E7
:10026000E7FB0C946602E92F0E948E0258F3BA173E
:10027000620773078407950720F079F4A6F50C94BC
:10028000B0020EF4E0950B2EBA2FA02D0B01B90190
:1002900090010C01CA01A0011124FF27591B99F0FC
:1002A000593F50F4503E68F11A16F040A22F232F08
:1002B000342F4427585FF3CF469537952795A79558
:1002C000F0405395C9F77EF41F16BA0B620B730BFF
:1002D000840BBAF09150A1F0FF0FBB1F661F771F70
:1002E000881FC2F70EC0BA0F621F731F841F48F425
:1002F000879577956795B795F7959E3F08F0B0CFAE
:100300009395880F08F09927EE0F97958795089594
:100310000E949C010C947D020E94760258F00E947B
:100320006F0240F029F45F3F29F00C9466025111EE
:100330000C94B1020C946C020E948E0268F3992313
:10034000B1F3552391F3951B550BBB27AA276217D1
:100350007307840738F09F5F5F4F220F331F441FDE
:10036000AA1FA9F335D00E2E3AF0E0E832D0915012
:100370005040E695001CCAF72BD0FE2F29D0660FFF
:10038000771F881FBB1F261737074807AB07B0E842
:1003900009F0BB0B802DBF01FF2793585F4F3AF048
:1003A0009E3F510578F00C9466020C94B1025F3FB9
:1003B000E4F3983ED4F3869577956795B795F795CE
:1003C0009F5FC9F7880F911D9695879597F90895B6
:1003D000E1E0660F771F881FBB1F62177307840752
:1003E000BA0720F0621B730B840BBA0BEE1F88F761
:1003F000E09508950E94960288F09F5798F0B92FD3
:100400009927B751B0F0E1F0660F771F881F991F49
:100410001AF0BA95C9F714C0B13091F00E94B00239
:10042000B1E008950C94B002672F782F8827B85F49
:1004300039F0B93FCCF3869577956795B395D9F7A1
:100440003EF490958095709561957F4F8F4F9F4FAB
:100450000895E89409C097FB3EF4909580957095B7
:1004600061957F4F8F4F9F4F9923A9F0F92F96E900
:10047000BB279395F695879577956795B795F11175
:10048000F8CFFAF4BB0F11F460FF1BC06F5F7F4F12
:100490008F4F9F4F16C0882311F096E911C0772324
:1004A00021F09EE8872F762F05C0662371F096E82D
:1004B000862F70E060E02AF09A95660F771F881FFC
:1004C000DAF7880F9695879597F9089597F99F67BA
:1004D00080E870E060E008959FEF80EC08950024CC
:1004E0000A941616170618060906089500240A9499
:1004F00012161306140605060895092E0394000C1F
:1005000011F4882352F0BB0F40F4BF2B11F460FFAD
:1005100004C06F5F7F4F8F4F9F4F089557FD9058D6
:10052000440F551F59F05F3F71F04795880F97FBB7
:10053000991F61F09F3F79F0879508951216130671
:100540001406551FF2CF4695F1DF08C016161706A0
:100550001806991FF1CF86957105610508940895D5
:10056000E894BB2766277727CB0197F908950E9467
:10057000CA020C947D020E946F0238F00E9476023B
:1005800020F0952311F00C9466020C946C02112457
:100590000C94B1020E948E0270F3959FC1F3950FE7
:1005A00050E0551F629FF001729FBB27F00DB11DF7
:1005B000639FAA27F00DB11DAA1F649F6627B00D87
:1005C000A11D661F829F2227B00DA11D621F739F70
:1005D000B00DA11D621F839FA00D611D221F749F7E
:1005E0003327A00D611D231F849F600D211D822FC5
:1005F000762F6A2F11249F5750409AF0F1F08823EC
:100600004AF0EE0FFF1FBB1F661F771F881F915018
:100610005040A9F79E3F510580F00C9466020C945F
:10062000B1025F3FE4F3983ED4F3869577956795E2
:10063000B795F795E7959F5FC1F7FE2B880F911D42
:0C0640009695879597F90895F894FFCFE0
:00000001FF
